:10000000D0C50000F4C50000F2C50000F0C5000036
:10001000EEC50000ECC50000EAC50000E8C5000020
:10002000E6C50000E4C50000E2C50000E0C5000030
:10003000DEC50000A5C600000C94DF330C94173415
:100040000C944F340C9487340C94BF340C94F734D4
:100050000C942F350C9467350C949F350C94D73540
:10006000C6C50000C4C50000C2C50000C0C5000070
:10007000BEC50000BCC50000BAC50000B8C5000080
:10008000B6C50000B4C500000C94953E0C94DC3E4F
:10009000AEC50000ACC50000AAC50000A8C50000A0
:1000A000A6C50000A4C50000A2C50000A0C50000B0
:1000B0009EC500000C94213B9BC500000C943F386A
:1000C0000C9477380C94AF380C94E7380C941F39A3
:1000D0000C9457398CC500008AC5000088C5000003
:1000E00086C5000084C500000C94563B80C5000006
:1000F0007EC500007CC500007AC5000078C5000000
:1001000076C5000074C5000072C5000070C500000F
:100110006EC500006CC500006AC500000C949B31E0
:100120000C94D8310C9415320C94523260C50000F6
:100130005EC500000C940F360C9447360C947F3645
:100140000C94B7360C94EF360C9427370C945F3729
:100150000C9497370C94CF370C94073848C500009F
:100160000C94973B44C5000042C5000040C5000008
:100170003EC500003CC500003AC5000038C500007F
:1001800036C5000034C5000032C5000030C500008F
:100190002EC500002CC500002AC5000028C500009F
:1001A00026C5000024C5000022C5000020C50000AF
:1001B0001EC500001CC500001AC5000018C50000BF
:1001C00016C5000014C5000012C5000010C50000CF
:1001D0000EC500000CC500000AC5000008C50000DF
:1001E00006C5000004C5000002C5000000C50000EF
:1001F000FEC40000FCC40000FAC400006A0A6C0AD5
:100200006E0A700A720A760A7A0A1D181F182718D1
:100210002A183B183E1844184B1868184E185318E3
:100220005818AF18AF18AF18AF185D18AF1862188C
:1002300068186D1883189618A318B242B442BD42CC
:10024000C642E8420F4347434A43DB421C431F4335
:100250002343264329432C432F433243354338431A
:100260003B433E4307634236B79BD8A71A396856CB
:1002700018AEBAAB558C1D3CB7CC5763BD6DEDFDC8
:10028000753EF6177231BF000000803F0800000085
:10029000BE922449123EABAAAA2ABECDCCCC4C3E7B
:1002A00000000080BEABAAAAAA3E00000000BF006A
:1002B0000000803F0000000000084178D3BB438766
:1002C000D1133D190E3CC3BD4282AD2B3E68EC827A
:1002D00076BED98FE1A93E4C80EFFFBE01C4FF7FFF
:1002E0003F00000000004E414E494E495459494ECE
:1002F00046CDCCCC3D0AD7233C17B7D13877CC2B91
:10030000329595E6241FB14F0A000020410000C835
:100310004200401C4620BCBE4CCA1B0E5AAEC59DB6
:100320007400407A10F35A00A0724E18090010A50C
:10033000D4E80000E87648170000E40B54020000FF
:10034000CA9A3B000000E1F5050000809698000085
:100350000040420F000000A08601000000102700AE
:10036000000000E803000000006400000000000A34
:1003700000000000000100000000002C76D888DC9E
:10038000674F0823DFC1DFAE59E1B1B796E5E3E47B
:1003900053C63AE651997696E8E6C28426EB898CF4
:1003A0009B62ED407C6FFCEFBC9C9F40F2BAA56F56
:1003B000A5F490055A2AF75C936B6CF9676DC11B25
:1003C000FCE0E40D47FEF520E6B500D0ED902E03ED
:1003D00000943577050080841E080000204E0A0036
:1003E0000000C80C333333330F986E12831141EF82
:1003F0008D2114893BE65516CFFEE6DB18D1844BE0
:10040000381BF77C1D901DA4BBE424203284725E4F
:10041000228100C9F124ECA1E53D27BC09454E55D8
:100420004D4445560000FF04F1095F454E554D43CC
:100430004D44020004D83B5245534554000000008F
:10044000FFFFE43B5F53485554444E0000FFFFE27A
:100450003D5F464143544F52590240058009535471
:1004600041545553000000FF05870941424F525443
:1004700000000000FFFFF03B5F524541445900007F
:1004800000FFFF273C52454144424C4B00024004D0
:1004900000005F4857524553455400FFFFEA3D5363
:1004A0004156450000000000FF05450A5F534554D2
:1004B00056455200054405EC3B5F4C4F434B4544C9
:1004C00000010005D80956455253494F4E0000FF20
:1004D000040000000000000000000000FFFF86098B
:1004E000454E41424C45000000FFFF3719434F4E37
:1004F00054524F4C3F0100004319434F4E54524F4A
:100500004C0002000060194552524F523F0000015A
:100510000001A5174552524F52000000031001A9D7
:100520001B4C494D4954533F00010003EB175452F3
:100530004947494E3F0001000101185452494749BB
:100540004E0000031001D917545249474F55543FEC
:10055000010001EC17545249474F55540003100154
:1005600044174750494F3F000000020005BB1847A1
:1005700050494F0000000003000502185445535431
:1005800000000000040401C62854454D5053455452
:100590003F010003DB2154454D50534554000530C5
:1005A0000305294249504F4C41523F010005DA28CA
:1005B0004249504F4C4152000200054A2254454DD9
:1005C000503F000000010003BA27544552524F52D9
:1005D0003F00010003712643555252454E543F01DE
:1005E00000036B2954454D504D494E3F0100030E09
:1005F0002954454D504D494E00053003E5295445D9
:100600004D504D41583F010003882954454D504DF0
:10061000415800053003FF254D4158435552523F84
:1006200001000321264D4158435552520005300325
:100630008223504741494E3F00000100036722508A
:100640004741494E0000000530039F23494E544561
:10065000473F0000010003A922494E5445470000CE
:1006600000053003BC2344455249563F00000100B9
:1006700003EB224445524956000000053003D923BC
:10068000534C45573F0000000100032D23534C45B8
:1006900057000000000530039627504741494E455A
:1006A0004E3F0100053127504741494E454E00025B
:1006B00000059F27494E544547454E3F0100054BD5
:1006C00027494E544547454E00020005A82744459A
:1006D000524956454E3F010005652744455249564B
:1006E000454E00020005B127534C4557454E3F008B
:1006F0000100057F27534C4557454E000002000579
:10070000E826504F5745523F00000100031527507F
:100710004552494F443F00010001F22650455249DD
:100720004F4400000310012827504F4C3F000000A9
:10073000000100051A27504F4C41524954590200FC
:10074000055125424554413F000000010003F623B6
:1007500042455441000000000530036E25524546D5
:1007600054454D503F0100032E2452454654454DFB
:1007700050000530038B255245465245533F00013A
:10078000000384245245465245530000053003A817
:100790002554434F4546413F00010003C6245443BE
:1007A0004F4546410000053003C52554434F45469B
:1007B000423F00010003E82454434F4546420000F5
:1007C000053003E22554434F4546433F00010003F3
:1007D0002F2554434F45464300000530031C264D4A
:1007E00041585057523F0001000351214D4158508C
:1007F00057520000053003452243564F4C543F00EA
:1008000000010003B52A545741524E3F0000010039
:1008100003792A545741524E000000053003E32665
:10082000435552525345543F010003A626435552A7
:100830005253455400053003DD2753544152545759
:100840000000010001262853544F505700000001BA
:100850000005332857415645494E464F0100047C58
:10086000285741564556414C00010004A828534CD6
:1008700057534D504441010004A92857465953434A
:10088000414C45053003BB28574658444543464133
:100890000200002E2141564C5057523F0000FF03EA
:1008A000192154544C5057523F0000FF032B285439
:1008B000454D504C5554000100FFED264C44494D28
:1008C00050443F00010003332A53465459544D54B9
:1008D0003F010003022A53465459544D5400053039
:1008E00003502A4C415354493F00000100036A2A37
:1008F0004C415354563F0000010003942C4D4C448E
:10090000435448520004C003E62C4D4C4443544821
:10091000523F00FF03EB2C4D4C524D544852000403
:10092000C003292D4D4C524D5448523F00FF034601
:100930002D4D4C534D504C4D00010000592D4D4C48
:10094000534D504C4D3F00FF005D2D4D4F44454CE5
:100950004B3F0000FF05662D4D4C4D45414E3F007D
:1009600000FF036B2D4D4C5641523F000000FF032A
:10097000702D4D4C53544444563F00FF03C82A5336
:100980004C535256454E3F010000BA2A534C535225
:1009900056454E00020000F52A534C535256474E1E
:1009A0003F010003D12A534C535256474E0005C015
:1009B00003212B534C5352564F533F010003FA2A45
:1009C000534C5352564F530005C003342B534C53D2
:1009D0005256504F3F00FF00262B534C5352565057
:1009E0004F00020000C91A444342494153563F0197
:1009F0000003CE1A4443424941535600053003F9DF
:100A00001A564C494D3F000000010003161B564C7E
:100A1000494D000000000530036A1B4F5554564FE6
:100A20004C543F010003CA1B485754454D503F00EA
:100A30000100032E17493243414444523F00FF0056
:100A400075174932434144445200010000871B5F3F
:100A500053454C4643414C01000046414C53450030
:100A600054525545004F4646004F4E0048562054BC
:100A7000656D70204C696D697420457863656564A7
:100A800065642E20526564756365204F75747075BA
:100A9000742043757272656E74004661756C7400E3
:100AA00041626F727465640046696E69736865645B
:100AB0000042757379004E6F204461746100496E85
:100AC000707574204F7574206F662052616E676573
:100AD000004F6666004F6E0050726576656E7465F5
:100AE0006420627920536166657479004E6F2043FB
:100AF00068616E6765004661696C75726500537563
:100B0000636365737300496E76616C696420454563
:100B100050524F4D20646174612E205573696E6789
:100B20002064656661756C742073657474696E67A2
:100B3000732E0053797374656D206F66662E204E98
:100B40006F20636F6D6D616E6473206163636570A8
:100B50007465642E00506F776572204661756C7401
:100B60003A2000493243204572726F723A200043A6
:100B70006F6E76657273696F6E204572726F720068
:100B8000496E76616C696420417267756D656E743B
:100B90007300496E76616C696420436F6D6D616EA0
:100BA000640011241FBECFEFCDBFDFE3DEBF00E046
:100BB0000CBF18BE19BE1ABE1BBE11E2A0E0B0E207
:100BC000ECEFF7EA00E00BBF02C007900D92A634ED
:100BD000B107D9F71BBE25E3A6E4B1E201C01D921F
:100BE000AB34B207E1F70E941E460C94FC5308CACE
:100BF0001F920F920FB60F92112408B60F9218BED3
:100C000009B60F9219BE0AB60F921ABE0BB60F9212
:100C10001BBE2F933F934F935F936F937F938F935D
:100C20009F93AF93BF93CF93DF93EF93FF93E091A5
:100C30004621F0914721848183FF06C08860848328
:100C400083E0838386EF7FC0982F947121F083E047
:100C500083838FEF78C086FF41C0A0914821B09177
:100C6000492180914A2190914B2114962D913C91DC
:100C700015978217930764F49C012F5F3F4F2093D1
:100C80004A2130934B21A80FB91F11968C9122C095
:100C900080914C2190914D2118962D913C9119975E
:100CA00082179307C8F420914E21222321F08681D8
:100CB000816086834AC016962D913C911797AC01AE
:100CC0004F5F5F4F40934C2150934D21D901A80FA6
:100CD000B91F8C91878339C083E02CC087FF32C055
:100CE000A0914821B091492180914C2190914D21B2
:100CF00018962D913C91199782179307F8F4169640
:100D00006D917C9117979C012F5F3F4F20934C2151
:100D100030934D214781EB01C80FD91F48831896A6
:100D20008D919C9119972817390718F482E08383D5
:100D30000CC087E083831092502107C083E0838337
:100D400089EF01C08BEF80935021FF91EF91DF91EC
:100D5000CF91BF91AF919F918F917F916F915F9153
:100D60004F913F912F910F900BBE0F900ABE0F90A5
:100D700009BE0F9008BE0F900FBE0F901F901895E0
:100D80001F920F920FB60F92112408B60F9218BE41
:100D900009B60F9219BE0BB60F921BBE2F933F934D
:100DA0004F935F936F937F938F939F93AF93BF9373
:100DB000EF93FF931DDFFF91EF91BF91AF919F9153
:100DC0008F917F916F915F914F913F912F910F90F4
:100DD0000BBE0F9009BE0F9008BE0F900FBE0F9074
:100DE0001F901895FC01DB0114968C91858388EB8C
:100DF000818381E08483E6E4F1E211861286E0EAF1
:100E0000F0E0828182608283789480E00895CF93BD
:100E1000DF931F92CDB7DEB7DC01FB01892B09F40C
:100E200044C0309709F441C0828590914F219923A5
:100E300019F081113CC0FFCF8FB78983F894898165
:100E400091E090934F2190E8909350218FBFA09311
:100E50004621B09347216093482170934921109215
:100E60004A2110924B2110924C2110924D21409317
:100E70004E219081990F24813581232B11F441114A
:100E8000916016969C93809150218038E1F3E09117
:100E90004621F091472184818370813009F0F7CF9A
:100EA0008091502110924F2103C088EF01C086EF3E
:100EB0000F90DF91CF910895009709F495C0803C81
:100EC000910511F460E105C0811524E0920719F441
:100ED00064E080E087C0803821E0920711F462E08E
:100EE000F8CF811521E0920711F461E0F2CF80384C
:100EF00023E0920711F461E005C0811522E092071A
:100F000019F462E081E06EC0803223E0920719F4A8
:100F100064E082E067C0811528E0920711F461E087
:100F20005AC0811529E0920711F461E04DC0811586
:100F30002AE0920711F461E054C0803428E092075F
:100F400011F462E048C0803429E0920711F462E0B5
:100F50003BC0803928E0920711F464E03CC080393E
:100F600029E0920711F464E02FC080392AE092074B
:100F700011F464E036C0803C28E0920711F468E088
:100F80002AC0803C29E0920711F468E01DC0803A35
:100F900028E0920711F460E11EC0803A29E0920730
:100FA00011F460E111C0803A2AE0920711F460E187
:100FB00018C0803B28E0920711F460E20CC0803B2F
:100FC00029E0920719F460E284E00CC0803824E044
:100FD000920719F460E483E005C0803A944021F45C
:100FE00060E485E00C940C330895FC01218125FF19
:100FF000FCCF608380E090E008958F929F92AF9243
:10100000BF92CF92DF92EF92FF920F931F93CF93F5
:10101000DF93EC016A017B01480159018C81B90120
:10102000A80182FF11C033E07695679557954795E3
:101030003A95D1F7D501C401E6E1B695A795979504
:101040008795EA95D1F710C094E076956795579506
:1010500047959A95D1F7D901C80127E1B695A7958B
:10106000979587952A95D1F74C155D056E057F05F7
:1010700008F498C0C816D906EA06FB0608F492C020
:101080008C8182FD04C0CC0CDD1CEE1CFF1CC50154
:10109000B401A70196010E94B04B19EF8FEF90E0C9
:1010A000A0E0B0E0281739074A075B0758F0880F1F
:1010B000991FAA1FBB1F1D3F0CF481601F5F1730D3
:1010C00089F749C017FF47C0D701C601F3E0880F71
:1010D000991FAA1FBB1FFA95D1F7881A990AAA0A65
:1010E000BB0A812F012E000C990B1E3FDCF42DEF63
:1010F0003FEFA901481B590B04C0880C991CAA1C7E
:10110000BB1C4A95D2F7D701C601B695A79597950E
:101110008795BC01CD01680D791D8A1D9B1DA70116
:10112000960116C00396A701960104C0220F331F33
:10113000441F551F8A95D2F7DA01C901B695A795C4
:1011400097958795BC01CD01680D791D8A1D9B1D62
:101150000E94B04B1DC083E0810FA701960104C01F
:10116000220F331F441F551F8A95D2F7DA01C90198
:10117000B695A79597958795BC01CD01680D791D0A
:101180008A1D9B1D0E94B04B215031094109510914
:10119000932F9F70812F8295807F892B8F832E8341
:1011A00081E001C080E0DF91CF911F910F91FF900E
:1011B000EF90DF90CF90BF90AF909F908F90089569
:1011C0000F931F93CF93DF93EC018B0175DE8D811D
:1011D0008F738D83F80195818481982B868181118D
:1011E00088E0892B8D83F801408151816281738170
:1011F00000E018E428EE31E0CE01FFDE9C8198602B
:101200009C839C8190619C83DF91CF911F910F9172
:101210000895E0915626F0E0A0915626B0E0AE5B2E
:10122000B94D14968C91EC5AFE4D808380915626D0
:10123000811136C08091532181110BC081E08093D0
:101240005A2690915421963009F049C08093832505
:1012500008958091542190918D20891720F081E08C
:1012600080935A260895893031F461E089E790E04F
:101270000E94FB39FFCFE82FF0E09F01220F331FC0
:10128000E20FF31FE051F74D20813181232B39F319
:1012900080938525828180935121811120C016C0C1
:1012A0008091562690915121891319C0882361F0AD
:1012B000282F30E0F901EC5AFE4D9081F901EB57EF
:1012C000FA4D90838150F2CF109251218091A80461
:1012D0008F7C8093A80461E08BE899E0ABC108950E
:1012E0000E94E63287E08093A2000E94013A69E002
:1012F00079E080E10FD381E08093532111C19FC237
:101300008091842549D310928425089550C381E0AB
:10131000809383254CC3CF9360E08BE899E08AD11A
:10132000CFB7F894109253218091852590E0FC016D
:10133000EE0FFF1F8E0F9F1FFC01E051F74D019034
:10134000F081E02D86E895E2199581E080935321A4
:10135000CFBFCF91089520915221222361F0282FF1
:10136000A7E3B6E2FC018E2F821B861718F4819149
:101370008D93F9CF0895FEC2CF93DF93CDB7DEB73B
:101380002897CDBFDEBF82E189831B821C821D822C
:1013900080918D208A831E821F82188668E0CE018C
:1013A0000196D9DF2896CDBFDEBFDF91CF9108959A
:1013B000CF93DF93CDB7DEB72897CDBFDEBF40E038
:1013C00068E0CE010196F9D281E08D838E8368E0DA
:1013D000CE010196C0DF2896CDBFDEBFDF91CF9151
:1013E0000895EF92FF921F93CF93DF93CDB7DEB7AF
:1013F0006597CDBFDEBF7C01FC011081812F90E09D
:10140000103148F42DE0289FB001299F700D112460
:10141000655E7B4F09C040972DE0289FB001299F52
:10142000700D112465517B4F4DE050E0CE010196C7
:101430000E946A4FF7018181811109C01E878B8547
:101440008F878C85888B8D85898B64E00AC088E0C6
:10145000FE013396DE011E9601900D928A95E1F70A
:1014600068E0CE010E9677DF6596CDBFDEBFDF91D7
:10147000CF911F91FF90EF90089590915221992361
:1014800019F080933726089587C20F931F93CF9347
:10149000DF93CDB7DEB72897CDBFDEBF8C01FC014F
:1014A00080819181863E904C89F540E068E0CE01D4
:1014B000019683D2F801938124814281477050E0E4
:1014C00047305105D0F4FA018827E250FF4F8F4F83
:1014D0000C94D24B998313C09A8311C09B830FC085
:1014E0009C830DC0913049F49D8309C0913029F44B
:1014F0009E8305C09F83288702C086E008C040E025
:1015000068E0CE0101968ED280E001C083E0B5DFB5
:101510002896CDBFDEBFDF91CF911F910F91089527
:10152000DF92EF92FF920F931F93CF93DF93CDB78C
:10153000DEB72D97CDBFDEBF3BE1E32E34E0F32EC7
:1015400000EF18E24DE050E0B701CE0101960E9495
:101550006A4F89819A81F801808391838B85828388
:10156000FDE0EF0EF11C0D5F1F4F89E200321807FE
:1015700049F790E1F92EE0908D202DE0D22EFE1457
:1015800008F50F2D10E0C8014097D89EB001D99EF4
:10159000700D112465517B4F4DE050E0CE01019656
:1015A0000E946A4FF801EE0FFF1F0E0F1F1FF80178
:1015B000E051F74D89819A81808391838B85828365
:1015C000F394DDCF80E0E8D12D96CDBFDEBFDF9173
:1015D000CF911F910F91FF90EF90DF900895809130
:1015E0004026909141260196809340269093412673
:1015F0000895FB014FB7F894209140263091412681
:101600004FBF60817181A9012617370730F0461B53
:10161000570B4817590760F007C041505109461B46
:10162000570B4817590720F02083318381E0089534
:1016300080E00895E1E7F0E220913F2644E0249F16
:10164000900111242F583F4DE217F30749F02081F4
:1016500031812817390711F4628308953496ECCF4D
:101660000895CF93DF93EC010E948F396FEE7AE0FB
:10167000CE010E94CF398981887F898380E09DE7F0
:101680008EA39FA38E818C7F8E838E8181608E83BB
:101690008881807F81608883DF91CF910895FF9258
:1016A0000F931F93CF93DF93CDB7DEB72997CDBFAD
:1016B000DEBF8C01F62E29833A834B835C83220F95
:1016C000331F441F551F60E078E488EE91E00E94CC
:1016D000B04BDA01C9010597A109B1098D839E8339
:1016E000AF83B887F9860115110509F496C0003C4F
:1016F000110511F460E105C0011584E0180719F423
:1017000064E080E088C00038E1E01E0711F462E088
:10171000F8CF0115F1E01F0711F461E0F2CF0038B6
:1017200083E0180711F461E005C00115E2E01E072F
:1017300019F462E081E06FC00032F3E01F0719F492
:1017400064E082E068C0011588E0180711F461E0E8
:101750005AC00115E9E01E0711F461E04DC0011502
:10176000FAE01F0711F461E055C0003488E0180763
:1017700011F462E048C00034E9E01E0711F462E0B1
:101780003BC00039F8E01F0711F464E03CC00039A9
:1017900089E0180711F464E02FC00039EAE01E0761
:1017A00011F464E037C0003CF8E01F0711F468E072
:1017B0002AC0003C89E0180711F468E01DC0003A17
:1017C000E8E01E0711F460E11EC0003AF9E01F07CF
:1017D00011F460E111C0003A8AE0180711F460E1E9
:1017E00019C0003BE8E01E0711F460E20CC0003BAA
:1017F000F9E01F0719F460E284E00DC0003884E0CE
:10180000180719F460E483E006C0003AE4E01E071C
:1018100021F460E485E00E940C33BE016F5F7F4FCE
:10182000C801E0DAF8018181886081832996CDBF03
:10183000DEBFDF91CF911F910F91FF90089520E7B8
:1018400031E141E050E060E580E894E028CFCF93BB
:10185000DF93CDB7DEB72B97CDBFDEBFFE0131964C
:101860003BE0DF011D923A95E9F729836F83788782
:1018700050E049875A8721E02B8728EE33E0DC01CE
:1018800014964C914370413021F440E0BF01BFDA1F
:1018900004C02150310999F78DEF2B96CDBFDEBFE3
:1018A000DF91CF910895242F462FBC0180E894E06A
:1018B000CECFCF93DF93CDB7DEB72B97CDBFDEBFB3
:1018C000FE0131963BE0DF011D923A95E9F729834D
:1018D0006F83788750E049875A8721E02B8728EE6D
:1018E00033E0DC0114964C914370413019F4BF0190
:1018F0008EDA04C021503109A1F78DEF2B96CDBFB0
:10190000DEBFDF91CF910895242F462FBC0180E8E0
:1019100094E0CFCF0F931F93CF93C82F8B0160E438
:1019200085E00E940C33A80160EA74E080910620F3
:10193000909107200E94CC3040EC6C2F80910620C3
:10194000909107200E94D7302091062030910720E7
:1019500080E090E0F901E80FF91F148201968830C9
:101960009105C1F7CF911F910F910895880F809332
:10197000AB040895693050F4462FBC0180910620D5
:101980009091072050E00C960E94934F8091A804FC
:1019900080638093A8040895E0910620F0910720C9
:1019A0008487E0EAF4E08085806380870895E0EA38
:1019B000F4E08085806380870895DF92EF92FF9244
:1019C0000F931F93CF93DF93CDB7DEB7A097CDBF13
:1019D000DEBFD82E092F842F162F613208F010E2B7
:1019E00040E250E09E012F5F3F4F7901B90130E2A4
:1019F000839FC00111240E943233ED2DF02FD701B7
:101A00008A2F8E19811718F48D918193F9CFA096A2
:101A1000CDBFDEBFDF91CF911F910F91FF90EF906F
:101A2000DF9008957F928F929F92AF92BF92CF9254
:101A3000DF92EF92FF920F931F93CF93DF93CDB777
:101A4000DEB7A097CDBFDEBF962E842E8E010F5F2E
:101A50001F4F20E2F80111922A95E9F7F0E24F9F1B
:101A6000500111246C017801F801DC01702E8E2FD9
:101A7000801B891518F48D918193F9CFC8010E94BC
:101A80006933882D0E947B3340E250E0B801C501E4
:101A90000E9432338E2D8719891550F4F7019191E8
:101AA0007F01F60181916F019817A1F381E001C0D8
:101AB00080E0A096CDBFDEBFDF91CF911F910F9147
:101AC000FF90EF90DF90CF90BF90AF909F908F905E
:101AD0007F9008958F929F92AF92BF92CF92DF92A4
:101AE000EF92FF92CF936091802670918126809132
:101AF0008226909183266B017C01E894F7F820E020
:101B000030E0A9010E94FD479091F92687FF02C0AD
:101B1000892F02C081E089270E94A61520E03FEFAF
:101B20004FE757E4C701B6010E945B4A20E030E06E
:101B300040E85EE30E945B4A2FE23AEB48E65EE350
:101B40000E94014820E030E040E05FE30E949947B6
:101B50000E949F486B017C016093D7277093D82720
:101B6000C091EF27C23050F16C2F70E080E090E020
:101B70000E94CB4820E030E048E453E40E94014852
:101B80009B01AC0160E070E080E89FE30E94984711
:101B90004B015C01B60180E090E00E94CB489B01C4
:101BA000AC01C501B4010E945B4A0E949F4860934A
:101BB000D7277093D827C150C093EF278091D7279C
:101BC0009091D827CF91FF90EF90DF90CF90BF906A
:101BD000AF909F908F9044C64F925F926F927F928A
:101BE0008F929F92AF92BF92CF92DF92EF92FF922D
:101BF0000F931F93CF93DF93CDB7DEB72897CDBF59
:101C0000DEBF8090902690909126A0909226B09072
:101C100093268091942690919526A0919626B09136
:101C200097268D839E83AF83B887BE016F5F7F4FFA
:101C300080E00E94A81689819A81AB81BC81809343
:101C4000C6279093C727A093C827B093C92780E0E1
:101C50000E94141F8093CE279093CF278130AFEF3F
:101C60009A0708F010C1292F30E0F901EE0FFF1F8D
:101C7000EE0FFF1FEE59FE4DC080D180E280F38051
:101C80008C011127220F331F220F331FF9019F3FB1
:101C900001F1EA59FE4DA7019601608171818281AF
:101CA00093810E9498472B013C01B80180E090E0AD
:101CB0000E94CB48A30192010E945B4A20E030E0E1
:101CC00040E85BE30E945B4AA70196010E949947A6
:101CD00024C0E25AFE4D2081318142815381C701E7
:101CE000B6010E9498472B013C0160E071E0601B47
:101CF000710B80E090E00E94CB48A30192010E940A
:101D00005B4A20E030E040E85BE30E945B4A9B01D5
:101D1000AC01C701B6010E94984720917826309106
:101D2000792640917A2650917B260E9498477B0124
:101D30008C012DEC3CEC4CEC5DE3C501B4010E9440
:101D400099479701A8010E94FD4718160CF0A0C002
:101D50002DEC3CEC4CEC5DE36D817E818F819885B0
:101D60000E9498479701A8010E94A24987FF90C04E
:101D700080902B2790902C27A0902D27B0902E2775
:101D80006091C6277091C7278091C8279091C92775
:101D90000E94CD48A50194010E94C9302B013C014D
:101DA00020E030E0A901B701C8010E94A2492DEC52
:101DB0003CEC4CEC5DE387FD23C060919026709174
:101DC000912680919226909193260E9498474B01EC
:101DD0005C019B01AC01B701C8010E94A24987FDCB
:101DE00034C0A5019401B701C8010E9498472DECA9
:101DF0003CEC4CE45EE30E9401484B015C0128C0CE
:101E000060919426709195268091962690919726C0
:101E10000E9499474B015C019B01AC01B701C801CD
:101E20000E94FD4718168CF0A5019401B701C80166
:101E30000E9498472DEC3CEC4CE45EE30E94014884
:101E40004B015C01E894B7F803C0812C912C54013C
:101E5000A501940160E070E080E89FE30E9498474C
:101E6000A30192010E945B4A2B013C01A501940150
:101E7000B701C8010E945B4A9B01AC01C301B201DA
:101E80000E94994707C060E070E080EC9FE702C0C5
:101E9000B701C8018B019C01C901B8012896CDBFCB
:101EA000DEBFDF91CF911F910F91FF90EF90DF90F8
:101EB000CF90BF90AF909F908F907F906F905F90EA
:101EC0004F9008950F931F93CF93DF9302E611E293
:101ED000C0E0D0E06CEC76E280E09C2F0E946E3097
:101EE000F80161937193819391938F012196C115AC
:101EF000F1E0DF0779F7DF91CF911F910F910895FE
:101F00004F925F926F927F928F929F92AF92BF9209
:101F1000CF92DF92EF92FF920F931F93CF93DF93B5
:101F20006DE571E282E090E064DB882309F4C6C3CA
:101F30008FB7F894209140263091412620935D215F
:101F400030935E218FBF80E00E94B62B80915C2190
:101F5000813009F4D6C248F0823009F472C383306C
:101F600009F4A7C310925C21A9C380910A20882399
:101F700009F45FC080916225823019F138F488231A
:101F8000E1F08130A1F56CE876E22EC0843051F1A9
:101F900008F449C0853059F568E876E280E0D8D683
:101FA0008BE09EEFAFE7B0E0809388269093892680
:101FB000A0938A26B0938B2636C080E090E08FD322
:101FC00032C06CE876E280E0C3D685EF91E0A0E80D
:101FD000BFEF80938C2690938D26A0938E26B0938E
:101FE0008F2621C068E876E280E0B2D61CC06CEC97
:101FF00076E28091F0269091F1260E946E306093F7
:102000007426709375268093762690937726809118
:10201000F0269091F12663D30E94732081E0809393
:10202000E12710920A20809162258F5F80936225BC
:1020300040C380916121811114C0CEDD2091F4262E
:102040003091F5264091F6265091F7260E94984748
:1020500060938E2770938F2780939027909391277A
:1020600001C0BADDC091E127C23008F510929A276D
:1020700010929B2710929C2710929D2710929E27CA
:1020800010929F271092A0271092A12710929227BA
:1020900010929327109294271092952710929627CA
:1020A0001092972710929827109299275EC0C330FC
:1020B00051F48091802690918126A0918226B09142
:1020C0008326BF7708C08091842690918526A091B1
:1020D0008626B091872680939A2790939B27A0937A
:1020E0009C27B0939D27C0909A27D0909B27E09083
:1020F0009C27F0909D2780909E2790909F27A090EE
:10210000A027B090A12720E030E0A901C501B401CB
:102110000E94FD47811109C0C0929E27D0929F273F
:10212000E092A027F092A12720C023E333E343E706
:102130005FE3C501B4010E945B4A4B015C0120EDE5
:102140003CEC4CE45DE3C701B6010E945B4A9B0195
:10215000AC01C501B4010E94994760939E2770931A
:102160009F278093A0279093A1278091E4279091A7
:10217000E52790FF06C08EEF8C0F8093E1270E9429
:102180003D2B8091612181111BC0209178263091D7
:10219000792640917A2650917B2660918E27709106
:1021A0008F2780919027909191270E949947609363
:1021B0008A2770938B2780938C2790938D2703C059
:1021C0008150809361218091E12780FF3FC19091F0
:1021D000E426913009F0B2C0833009F0AFC080919D
:1021E0005F21909160219C012F5F3F4F20935F21E1
:1021F000309360216091EE267091EF26660F771F75
:10220000660F771F0E949C4B892B09F097C0E090C6
:102210005F26F09060260091612610916226209141
:102220005B2630915C2640915D2650915E26609140
:10223000D32A7091D42A8091D52A9091D62A0E94CF
:1022400093194B015C0120E030E040E251E46091E1
:10225000E6267091E7268091E8269091E9260E9473
:1022600001489B01AC0160E070E080E291E40E94D3
:10227000BE4A6B017C012091EA263091EB26409109
:10228000EC265091ED268091E5268823A9F0C50122
:10229000B4010E949847A70196010E945B4A9B01E6
:1022A000AC01609178267091792680917A26909180
:1022B0007B260E94984712C0C501B4010E9498472E
:1022C000A70196010E945B4A2091782630917926D9
:1022D00040917A2650917B260E9499477B018C0180
:1022E000C090C426D090C526D091C626C091C726DE
:1022F0009B01AC01B6018D2F9C2F0E94FD4787FDED
:1023000003C06701D02FC12FE090C026F090C126F6
:102310000091C2261091C32696014D2F5C2FB70164
:10232000C8010E94A24918161CF076010D2F1C2F1F
:10233000B701C8010E948F1F0E9473208091E3277C
:10234000882309F483C08091EB278F5F8093EB276C
:102350009091EA27891708F479C020E030E04AE735
:1023600054E460918E2770918F27809190279091EF
:1023700091270E945B4A2091E6273091E727409100
:10238000E8275091E9270E945B4A6B017C0120E01D
:1023900030E0A9010E94FD4720E030E040E05FE32B
:1023A00087FF05C0C701B6010E94984704C0C70156
:1023B000B6010E9499476B017C0120E030E04EEFAE
:1023C00052E40E94A24918167CF020E030E040E080
:1023D00053ECC701B6010E94FD4787FD07C0C70146
:1023E000B6010E949A4803C06FE701C060E8E7E3C6
:1023F000F7E24FB7F894A081B1816C93808191810D
:10240000019680839183268137812817390720F42C
:102410008481958180839183828593856085718590
:102420008617970720F40196828793870CC08281D4
:1024300093810196828393832817390720F484813E
:102440009581828393834FBF1092EB278091E12780
:102450008230A1F1833009F02CC14090C227509006
:10246000C3276090C4277090C5272091F42630912F
:10247000F5264091F6265091F726609174267091CA
:10248000752680917626909177260E9499479B0128
:10249000AC0160918A2770918B2780918C27909155
:1024A0008D27E7E3AE2EE7E2BE2EF8E9CF2EF6E267
:1024B000DF2E830172010E948D1D19C0E090B026AD
:1024C000F090B1260091B2261091B3262091AC264F
:1024D0003091AD264091AE265091AF266091842672
:1024E0007091852680918626909187261CD76093CF
:1024F0008026709381268093822690938326EADA41
:10250000D8C080916725882309F4D3C0EAD26B0133
:102510007C016093D72A7093D82A8093D92A90930C
:10252000DA2A8090DB2A9090DC2AA090DD2AB090F5
:10253000DE2A20E030E0A901C501B4010E94FD4778
:10254000811109C0C092DB2AD092DC2AE092DD2AF8
:10255000F092DE2A20C026E636E646E65FE3C501B5
:10256000B4010E945B4A4B015C0120ED3CEC4CEC59
:102570005DE3C701B6010E945B4A9B01AC01C50146
:10258000B4010E9499476093DB2A7093DC2A809300
:10259000DD2A9093DE2A69D26B017C016093CF2AF9
:1025A0007093D02A8093D12A9093D22A8091692661
:1025B000813061F480916625882341F08091642503
:1025C0009091652501978336910588F08090D32AF4
:1025D0009090D42AA090D52AB090D62A20E030E05E
:1025E000A901C501B4010E94FD47811109C0C09233
:1025F000D32AD092D42AE092D52AF092D62A59C072
:1026000026E636E646E65FE3C501B4010E945B4A72
:102610004B015C0120ED3CEC4CEC5DE3C701B601E5
:102620000E945B4A9B01AC01C501B4010E9499471D
:102630006093D32A7093D42A8093D52A9093D62A74
:1026400038C0C0910820D0910920CF3FD10509F0B2
:1026500080F56CEC76E280E09C2F0E946E30CC0F0F
:10266000DD1FCC0FDD1FCE59DE4D688379838A8351
:102670009B838091082090910920019680930820E7
:102680009093092081159140A1F460917826709172
:10269000792680917A2690917B260E948F1F8091C7
:1026A000F0269091F1268093F2269093F3260E94D3
:1026B000732080915C218F5F80935C21DF91CF91AB
:1026C0001F910F91FF90EF90DF90CF90BF90AF9050
:1026D0009F908F907F906F905F904F900895AF92F2
:1026E000BF92CF92DF92EF92FF920F931F93CF93FF
:1026F000DF931F921F92CDB7DEB7982789279827BF
:1027000089839A8380ECA82E89E0B82EF501808118
:102710008F7B8083C12CD12C760100E814E82EE158
:1027200030E043E060E070E080EC99E00E94A63287
:10273000F50180818064808300E616E0BB24B394B9
:10274000F801B68242E050E0BE016F5F7F4F80EC3F
:1027500099E00E94C732F801B58280E090E00F90C6
:102760000F90DF91CF911F910F91FF90EF90DF902D
:10277000CF90BF90AF9008959F92AF92BF92CF92AB
:10278000DF92EF92FF920F931F93CF93DF9300D0CE
:102790001F92CDB7DEB7B82EA62E972EC12CD12C06
:1027A000760100E814E82EE130E040E060E070E0FF
:1027B00080EC98E00E94A632EBE6F5E28081807C16
:1027C0009B2D97708861892B8083A09269259092B8
:1027D0006A2520916C2529838A839B82AC8200E440
:1027E00016E080E1B82EF801B68243E050E0BE0169
:1027F0006E5F7F4F80EC98E00E94C732F801B5828F
:102800002496CDBFDEBFDF91CF911F910F91FF9036
:10281000EF90DF90CF90BF90AF909F900895CF93AF
:10282000C0E060E070E08C2FA7DFCF5FC430C9F755
:10283000CF91089520E03FEF4FE757E40E945B4AB5
:1028400020E030E046E952E40E94014820E030E018
:1028500040E05FE30E9499470E949F4882E08CCF4E
:10286000BC0183E089CFFC01208131812F773C7F3F
:10287000962F977080E8989FB0011124622B732BDC
:10288000608371830895FC0120813181337E962F0E
:102890009770692F70E0762F6627770F770F622B7E
:1028A000732B608371830895FC0120813181277C23
:1028B000962F977088E0989FB0011124622B732B9C
:1028C000608371830895FC0120813181297F962FD7
:1028D0009370692F70E0660F771F622B732B6083F4
:1028E00071830895FC01408151814E7F262F217014
:1028F00030E0242B352B208331830895FC01408167
:1029000051814F7B262F217030E086E0220F331F4C
:102910008A95E1F7242B352B208331830895FC0120
:10292000408151815F7D6170362F3295330F307E4B
:1029300020E0242B352B208331830895CF93DF9320
:10294000CDB7DEB72597CDBFDEBF22E02D83FC01DA
:10295000808191818B839C8319821A828B819C81D7
:10296000880F991F880F991F8B839C832B813C8133
:10297000832F922F8B839C8388E08093460680E090
:1029800090E0E3E0F0E0EC0FFD1FE80FF91F2D8170
:102990003FEF320F3D83222391F020812093C30823
:1029A0002091C20827FFFCCF2091C308E1E0F0E0AE
:1029B000EC0FFD1FE80FF91F20830196E2CF000006
:1029C00088E08093450629813A81832F922F89835D
:1029D0009A8389819A81969587959695879589831B
:1029E0009A8389819A812596CDBFDEBFDF91CF91F1
:1029F00008951F93CF93DF93EC011FB7F8949EDFE8
:102A000085E38A95F1F70000CE0198DF85E38A958A
:102A1000F1F70000CE0192DF80936D2590936E2533
:102A20001FBF80916D2590916E25DF91CF911F91F1
:102A3000089561E08FE695E216DF67E08FE695E2A4
:102A400022DF60E08FE695E22FDF60E08FE695E21F
:102A50003ADF61E08FE695E245DF61E08FE695E2DF
:102A60004DDF61E08FE695E25ACF63E08FE695E2B5
:102A7000FADE63E08FE695E2BCDF80936E269093EA
:102A80006F26BC0180E090E00E94CB4820E030E05F
:102A900040E250E40E945B4A20E03CEF4FE756E4FE
:102AA0000E94014823E839E14CEC5CE30C940148B6
:102AB00065E08FE695E2D7DE65E08FE695E299DF87
:102AC000BC0180E090E00E94CB4820E030E44CE183
:102AD00055E40E945B4A20E03CEF4FE756E40C943B
:102AE000014866E08FE695E2BEDE66E08FE695E29D
:102AF00080DFBC0180E090E00E94CB4820E030E421
:102B00004CE155E40E945B4A20E03CEF4FE756E47D
:102B10000E94014820E030E04AEF53E40E949847C9
:102B200020E030E040E251E40E94014820E030E043
:102B3000A9010C949947CF93C82F682F8FE695E28F
:102B400092DE6C2F8FE695E2CF9153CF882331F040
:102B500084E08093060600C080E105C080E1809398
:102B6000060600C084E08093050608956F927F9268
:102B70008F929F92BF92CF92DF92EF92FF920F932C
:102B80001F93CF93DF9300D01F92CDB7DEB7FC0128
:102B9000892B09F4CBC084E025E735E2D9011D92E9
:102BA0008A95E9F7809178258770886280937825E7
:102BB0008091752590917625A0917725B091782503
:102BC000BF778093752590937625A0937725B09352
:102BD0007825B0937125A0937225909373258093E7
:102BE0007425A42FA695A695A69580E2A89FD0014E
:102BF00011244D019AEF991A477021E030E001C08D
:102C0000220F4A95EAF7D40116962C9341E755E234
:102C1000CE0105968E010F5F1F4FDA01FD90AD01C9
:102C2000DB011396FC92C12CD12C7601DB011296AC
:102C3000BC90B7FC0DC0B8EECB16B3E0DB06E104E8
:102C4000F104C1F0BFEFCB1ADB0AEB0AFB0AEECFAF
:102C5000A8EECA16A3E0DA06E104F10459F0DB019C
:102C60001396FC90DC01FE92CD010A171B07A9F612
:102C700080E001C08DEFD40115962C93811157C0CF
:102C800029812295269527709A81392F330F330F8A
:102C9000330F632E622A292F2295269527709B8158
:102CA000392F330F330F330F732E722A9295969567
:102CB00097702C81322F330F330F330F832E892AD5
:102CC000E82C6301CC24E7FCC394DD24EE2491E0DE
:102CD000322F307225FF90E09C15C1F0682DA301C2
:102CE00070E031111EC07F6FA0917925B0E0AA0F6E
:102CF000BB1FA658BA4DCD90DC900D2C000CEE08F1
:102D0000FF084C0D5D1D6E1D7F1D0BC088202CF033
:102D100041E050E060E87FEF04C04FEF5FEF6FE706
:102D200070E0408351836283738301C080E0249606
:102D3000CDBFDEBFDF91CF911F910F91FF90EF903C
:102D4000DF90CF90BF909F908F907F906F9008956D
:102D5000AF92BF92CF92DF92EF92FF920F931F93A9
:102D6000CF93DF935B01C0ECD9E088818F7B8883B0
:102D7000C12CD12C760100E814E82EE130E040E0CF
:102D800060E070E080EC99E00E94A6328881806467
:102D900088834CE160EC79E0C501E8DE082E000C88
:102DA000990BDF91CF911F910F91FF90EF90DF90E2
:102DB000CF90BF90AF900895009729F0FC0120813B
:102DC000213009F420C08FEF9FEF0895F5CF0097D1
:102DD00049F0FC012081211105C021E0208381E020
:102DE00090E008958FEF9FEF0895CF93DF930097C2
:102DF00029F0EC01ECDF22E0298302C08FEF9FEF86
:102E0000DF91CF910895009761F0FC01208121307E
:102E100041F44085678105960E94840C81E090E032
:102E200008958FEF9FEF0895CF93DF93009789F078
:102E3000FC012081213069F4EC0184E1808782E08B
:102E40008783CF01C3DF8D819E81982789279827AB
:102E500002C080E090E0DF91CF910895CF93DF939F
:102E6000CDB7DEB72997CDBFDEBF40E069E0CE0128
:102E700001960E94DD0C89850E943D0A2996CDBFEE
:102E8000DEBFDF91CF910895FC018081823099F0FF
:102E900038F4882369F0813029F52091280613C081
:102EA000843079F058F08131E9F42091E8070BC0C3
:102EB0002091080608C02091480605C020916806A8
:102EC00002C02091880681E090E0018002C0880F56
:102ED000991F0A94E2F730E082239323892B11F0A3
:102EE00084E001C085E00C943D0A0F931F93CF93BB
:102EF000DF93CDB7DEB72997CDBFDEBF8C01FC01D4
:102F0000808187FD13C040E069E0CE0101960E94F8
:102F1000DD0CF8018081898740E069E0CE010196EF
:102F20000E94120D89850E94B60C04C08091AB04EA
:102F30008695898789850E943D0A2996CDBFDEBF87
:102F4000DF91CF911F910F910895CF93DF931F923F
:102F50001F92CDB7DEB7FC012081213009F020E0BF
:102F6000FC01818192818095909521110BC0209167
:102F7000E4273091E527822393238093E4279093DD
:102F8000E5270AC02091E72A3091E82A822393237B
:102F90008093E72A9093E82A906C89839A8362E071
:102FA000CE0101960E94AB090F900F90DF91CF9157
:102FB0000895CF93DF931F921F92CDB7DEB719828A
:102FC0001A8262E0CE0101960E94AB090F900F9029
:102FD000DF91CF910895EDCFCF93DF931F921F9292
:102FE000CDB7DEB7FC018181928189839A8362E04B
:102FF000CE0101960E94AB090F900F90DF91CF9107
:103000000895EACF0F931F93CF93DF931F921F92E0
:10301000CDB7DEB7FC010081918162817381698344
:103020007A8310E00831110508F099C0F80188276B
:10303000EB5FFE4F8F4F0C94D24B17DD5FC091308A
:1030400019F4909367258BC01092672588C080E0A3
:10305000EBD60EC08091C6279091C727A091C827B4
:10306000B091C927892F9A2FAB2FBB27A7FDBA95FF
:1030700089839A8374C0CB01F3DB71C0973008F069
:103080006EC0892F58DDF4CF943010F4892F1EC004
:1030900019821A8264C0CB0122DB61C08091722642
:1030A00090917326E5CF80916E2690916F26E0CFA8
:1030B0008091702690917126DBCF892F992331F072
:1030C00081E004C0892F911181E08E5F55DB47C0FC
:1030D0008091D7279091D827CBCF8091802690914F
:1030E0008126A0918226B0918326BC01CD019F77D5
:1030F00020E030E04AE754E40E945B4A0E949F4887
:1031000069837A832CC0911103C021E030E007C0AD
:103110009B3008F09AE089E1989F90011124209358
:10312000EE263093EF26892F90E0A2CF8091EE26F5
:103130009091EF268230910508F4AACF69E170E002
:103140000E949C4BDDCF82E08093610690916806DF
:1031500091FF03C08093660602C08093650662E01B
:10316000CE0101960E94AB090F900F90DF91CF9195
:103170001F910F910895FC0180818230A1F040F4ED
:10318000882379F0813009F06FC08181885F13C096
:10319000843079F058F0813109F066C08181885817
:1031A0000AC0818108C08181805F05C08181885EFD
:1031B00002C08181805E8093822580918225803249
:1031C000D9F1809182258132B9F1809182258332B3
:1031D00099F180918225823279F180918225A82F00
:1031E000A695A695A69530E2A39FD0011124BA5FBB
:1031F000282F277081E090E0AC0102C0440F551FDA
:103200002A95E2F711964C9320918225A22FA6953C
:10321000A695A69550E2A59FD0011124BA5F3281F0
:10322000277001C0880F2A95EAF7332319F0159605
:103230008C9302C016968C9390918225E92FE69587
:10324000E695E69580E2E89FF0011124FA5F30856B
:10325000292F277081E090E001C0880F2A95EAF7B6
:10326000832311F084E001C085E00C943D0AFC0149
:103270008081813019F08091E12703C08091CE2AAE
:1032800080580C943D0ACF93FC012081C1812130EC
:1032900029F08C2F0E943D2B8C2F0FC0C093CE2A7B
:1032A0008C2F95D26091BD2A7091BE2A8091BF2A41
:1032B0009091C02ABFDA80E88C0FCF910C943D0A20
:1032C000CF93DF931F921F92CDB7DEB7FC018081B1
:1032D000813009F080E081110AC08091E42790914B
:1032E000E527906C89839A8381E018D607C0809186
:1032F000E72A9091E82A906C89839A8362E0CE0154
:1033000001960E94AB090F900F90DF91CF91089525
:10331000FC01680F791F80E0E617F70719F091911B
:10332000890FFACF08958F929F92AF92BF92CF925A
:10333000DF92EF92FF920F931F93CF93DF936B0176
:10334000D82FC92F49015A019701A8010E94A2490B
:1033500018166CF09401A501B6018D2F9C2F0E94C8
:10336000FD4787FF07C06401DA2DCB2D03C067013D
:10337000D02FC12FB6018D2F9C2FDF91CF911F91A0
:103380000F91FF90EF90DF90CF90BF90AF909F9004
:103390008F900895EDEBFAE280E090E0A0E8BFE3C3
:1033A00084AB95ABA6ABB7AB80AF91AFA2AFB3AFD9
:1033B00084A795A7A6A7B7A780AB91ABA2ABB3ABE9
:1033C00040E050E060E272E44093022B5093032B04
:1033D0006093042B7093052B4093062B5093072B7F
:1033E0006093082B7093092B8093FA2A9093FB2A01
:1033F000A093FC2AB093FD2A8093FE2A9093FF2A83
:10340000A093002BB093012B40E050E060EA72E4FF
:103410004093132B5093142B6093152B7093162B02
:103420004093172B5093182B6093192B70931A2BE2
:1034300080930B2B90930C2BA0930D2BB0930E2B02
:1034400080930F2B9093102BA093112BB093122BE2
:1034500040E050E060EE70E44093242B5093252B25
:103460006093262B7093272B4093282B5093292B66
:1034700060932A2B70932B2B80931C2B90931D2BE6
:10348000A0931E2BB0931F2B8093202B9093212B66
:10349000A093222BB093232B0895EDEBFAE2108238
:1034A000118212821382148215821682178210866C
:1034B00011861286138680E090E0A0E7B2E484874C
:1034C0009587A687B78708951F93CF93DF9381E1F0
:1034D00090E00E94094CEC0143E060E20E94DD0CA8
:1034E000188960E170E0CE0113DF18131DC081E17F
:1034F000FE01A9EEBAE201900D928A95E1F744E04F
:1035000060E2CE010E94DD0C188960E170E0CE011E
:10351000FFDE18130BC081E1FE01AAEFBAE20190B1
:103520000D928A95E1F703C035DFE9CF33DF45E03F
:1035300060E2CE010E94DD0C188960E170E0CE01EE
:10354000E7DE181309C081E1FE01ABE0BBE20190A8
:103550000D928A95E1F701C01DDF46E060E2CE01E1
:103560000E94DD0C188960E170E0CE01D1DE1813F5
:1035700009C081E1FE01ACE1BBE201900D928A95A8
:10358000E1F701C007DFCE01DF91CF911F910C94CD
:10359000A14C64E08DEB9AE20C94AB09EF92FF92A0
:1035A0000F931F93FC016181728183819481E0906C
:1035B000C92AF090CA2A0091CB2A1091CC2A20E087
:1035C00030E0A901B0DE6093BD2A7093BE2A8093DB
:1035D000BF2A9093C02A2091CE2A223008F02AD9FF
:1035E00064E08DEB9AE21F910F91FF90EF900C94A5
:1035F000AB09CF93DF9300D01F92CDB7DEB7809198
:10360000C92A9091CA2AA091CB2AB091CC2A898349
:103610009A83AB83BC8364E0CE0101960E94AB0920
:103620002496CDBFDEBFDF91CF910895CF92DF9278
:10363000EF92FF92FC01C180D280E380F48020E011
:1036400030E040E752E4C701B6010E94A2491816D3
:103650006CF020E030E0A901C701B6010E94FD47EF
:1036600087FF0AC0C12CD12C760106C0C12CD12CF9
:1036700080E7E82E82E4F82EC092C92AD092CA2AA6
:10368000E092CB2AF092CC2A2091BD2A3091BE2A1A
:103690004091BF2A5091C02AC701B6010E94FD4740
:1036A00087FF0FC0C092BD2AD092BE2AE092BF2AE7
:1036B000F092C02A8091CE2A823018F0C701B6015C
:1036C000B9D864E089EC9AE2FF90EF90DF90CF9058
:1036D0000C94AB09CF93DF9300D01F92CDB7DEB728
:1036E0008091D32A9091D42AA091D52AB091D62A3C
:1036F00089839A83AB83BC8364E0CE0101960E94E8
:10370000AB092496CDBFDEBFDF91CF910895FC01B8
:103710008081809369260E943D0A809169268130CC
:1037200091F480936625109264251092652560E0DF
:1037300070E080E792E47ED880E88093050682E01E
:10374000809326060895823019F424DE0C94453DBA
:103750000895CF93DF9300D01F92CDB7DEB71982C3
:103760001A821B821C82FC018081813041F480E03E
:1037700090E0A0E7B2E489839A83AB83BC8364E0E2
:10378000CE0101960E94AB092496CDBFDEBFDF912A
:10379000CF910895CF93DF9300D01F92CDB7DEB7BE
:1037A0008091DB2A9091DC2AA091DD2AB091DE2A5B
:1037B00089839A83AB83BC8364E0CE0101960E9427
:1037C000AB092496CDBFDEBFDF91CF910895823043
:1037D00058F460E070E0CB012DD882E0809325069C
:1037E00080E8809306060895833029F480E880936A
:1037F000050682E005C0823029F490E89093050622
:103800008093260608952F923F924F925F926F9277
:103810007F928F929F92AF92BF92CF92DF92EF9260
:10382000FF920F931F93CF93DF93CDB7DEB7279708
:10383000CDBFDEBF8C011B014F83FC01EE59FF4F52
:10384000608170E080E090E00E94CD48D80114963D
:103850002D913D914D915C9117970E945B4A2B01F0
:103860003C01F801ED59FF4F608170E080E090E08D
:103870000E94CD48F80120853185428553850E94FC
:103880005B4A4B015C01F801EC59FF4F608170E02D
:1038900080E090E00E94CD48D8011C962D913D918A
:1038A0004D915C911F970E945B4A6B017C01F8016E
:1038B000E958FF4F408251826282738220E030E0FB
:1038C000A901C501B4010E94FD47F801E558FF4F69
:1038D000ED83FE8381110AC010821182128213824D
:1038E0003C9610821182128213825BC020E030E08D
:1038F000A901C701B6010E94FD47F801E159FF4F38
:10390000E983FA83882381F0A7019601C501B401F8
:103910000E945B4A0E942E4BA981BA816D937D93D0
:103920008D939C9313970AC0C501B4010E942E4B3E
:10393000E981FA816083718382839383D8018D91B9
:103940009D910D90BC91A02D89839A83AB83BC83FC
:103950009C01AD01C301B2010E945B4AA501940123
:103960000E940148ED81FE8160837183828393838D
:10397000980129573F4F2D833E83F801E159FF4FAE
:10398000208131814281538169817A818B819C813F
:103990000E940148AD81BE816D937D938D939C9370
:1039A0001397F801E959FF4F80819181A281B3817A
:1039B00089839A83AB83BC83D8012D913D914D912E
:1039C0005C9169817A818B819C810E945B4AA7010D
:1039D00096010E9499474B015C01F801E158FF4FA5
:1039E000ED83FE839B01AC01C701B6010E94014833
:1039F000AD81BE816D937D938D939C931397F80158
:103A0000ED57FF4FED83FE8329813A814B815C8125
:103A1000C301B2010E945B4AA70196010E945B4A62
:103A2000A50194010E940148AD81BE816D937D93F3
:103A30008D939C931397BF81BB23B1F0F101ED5A95
:103A4000FF4F80819181A281B381359780839183DB
:103A5000A283B38338971082118212821382349624
:103A60001082118212821382F101E556FF4F1082FB
:103A70007C9780E090E0A0EAB1E480839183A28308
:103A8000B3837D9610822796CDBFDEBFDF91CF91A5
:103A90001F910F91FF90EF90DF90CF90BF90AF906C
:103AA0009F908F907F906F905F904F903F902F905E
:103AB00008954F925F926F927F928F929F92AF92F2
:103AC000BF92CF92DF92EF92FF920F931F93490123
:103AD0005A01670178012601370177FA709477F867
:103AE00070940E94984787017601A30192011BDC24
:103AF0009B01AC01C501B4010E9499471F910F9130
:103B0000FF90EF90DF90CF90BF90AF909F908F90FD
:103B10007F906F905F904F9008952F923F924F92B9
:103B20005F926F927F928F929F92AF92BF92CF924D
:103B3000DF92EF92FF920F931F93CF93DF93CDB756
:103B4000DEB76297CDBFDEBF6B837C838D839E83A0
:103B500029013A01ED86FE860F87188BC98ADA8A19
:103B60001501D60158968D909D90AD90BC905B97B5
:103B700054968D919D910D90BC91A02D89879A8727
:103B8000AB87BC87F601E05AFF4F8081811108C0E6
:103B9000A5019401C501B4010E945B4A4B015C017F
:103BA000E989FA89ED58FF4FC080D180E280F38027
:103BB00020E030E0A901C701B6010E94FD47F101F4
:103BC000E25BFF4FE983FA83882339F0E989FA89B8
:103BD000EB59FF4F8081811108C0A981BA814D92B4
:103BE0005D926D927C92139712C0E981FA812081D7
:103BF00031814281538187017601C301B20159DFCE
:103C0000A981BA816D937D938D939C931397E989D4
:103C1000FA89E559FF4F9101225B3F4F29833A838F
:103C2000D9012D913D914D915C916081718182818D
:103C300093810E945B4A2B813C814D815E810E9471
:103C40009847E989FA89E958FF4F208131814281FB
:103C500053810E945B4A2B013C01F101EE5BFF4F57
:103C60006083718382839383E989FA89E158FF4FE6
:103C70008101065B1F4FD8012D913D914D915C91C3
:103C800060817181828193810E945B4A6B017C011A
:103C9000F101FE96EF83F8872081318142815381C3
:103CA0006B817C818D819E810E949847E989FA8988
:103CB000ED57FF4F20813181428153810E945B4A41
:103CC0009B01AC01C701B6010E9498479B01AC0162
:103CD000D8016D937D938D939C931397B6E42B0E2F
:103CE000311CC301B2010E949947F1012081318149
:103CF000428153810E9499472D853E854F85588981
:103D00000E9499472B013C018501740129853A8560
:103D10004B855C8508DB4B015C012B813C814D812F
:103D20005E81A981BA816D917D918D919C910E9456
:103D30009847E989FA89E558FF4F2081318142810E
:103D400053810E945B4AF10120813181428153817C
:103D50000E9499476B017C0109891A8909571F4FF5
:103D6000A3019201C501B4010E949847D8012D9189
:103D70003D914D915C910E945B4A9B01AC01C70152
:103D8000B6010E949947F101608371838283938316
:103D90008B819C81AD81BE81EF81F8858083918389
:103DA000A283B383E989FA89E05AFF4F80818111A8
:103DB00019C0C501B4016296CDBFDEBFDF91CF91BE
:103DC0001F910F91FF90EF90DF90CF90BF90AF9039
:103DD0009F908F907F906F905F904F903F902F902B
:103DE0000C942E4BC501B4016296CDBFDEBFDF91AE
:103DF000CF911F910F91FF90EF90DF90CF90BF90E8
:103E0000AF909F908F907F906F905F904F903F907A
:103E10002F90089589E0EEE8F5E2DF011D928A9582
:103E2000E9F7CF010C94F516811104C08EE895E2F4
:103E30000C94141780E090E008954F925F926F9277
:103E40007F928F929F92AF92BF92CF92DF92EF922A
:103E5000FF922091D8263091D9264091DA265091B0
:103E6000DB2660E070E080E89FE30E9401486B0180
:103E70007C016093D0267093D1268093D2269093B4
:103E8000D3266091DC267091DD268091DE2690910C
:103E9000DF260E94E8492B013C0123E333E948E88F
:103EA00053E46091E0267091E1268091E2269091A2
:103EB000E3260E9499479B01AC0160E070E080E836
:103EC0009FE30E9401484B015C01A3019201C701DD
:103ED000B6010E945B4A9B01AC01C501B4010E947E
:103EE00098476093CC267093CD268093CE269093EE
:103EF000CF261092D4261092D5261092D626109254
:103F0000D726FF90EF90DF90CF90BF90AF909F901B
:103F10008F907F906F905F904F90089508952F92AB
:103F20003F924F925F926F927F928F929F92AF9249
:103F3000BF92CF92DF92EF92FF920F931F93CF9396
:103F4000DF93CDB7DEB72C97CDBFDEBF7B018C01F1
:103F50002090F0263090F1268091F4269091F5265D
:103F6000A091F626B091F72689879A87AB87BC8700
:103F70008091742690917526A0917626B09177262F
:103F80008D839E83AF83B887809178269091792620
:103F9000A0917A26B0917B2689839A83AB83BC83D8
:103FA0008090C4269090C526A090C626B090C726C3
:103FB0009B01A801B401C5010E94FD4787FF02C013
:103FC000740185018090C0269090C126A090C226E1
:103FD000B090C3269401A501B701C8010E94FD4716
:103FE00087FF02C0740185014CEC56E2B701C8019D
:103FF0000E94092F8093F0269093F1266CEC76E2D4
:104000000E946E304B015C019B01AC01B701C801FD
:104010000E9498472B013C016093F4267093F5268B
:104020008093F6269093F7268092742690927526B8
:10403000A0927626B0927726C701D8018093782681
:1040400090937926A0937A26B0937B2669817A8112
:104050008B819C819701A8010E94984769837A838C
:104060008B839C8369857A858B859C852D813E8198
:104070004F8158850E9499476D837E838F839887EF
:10408000CD80DE80EF80F884A3019201C501B401E8
:104090000E9499479B01AC01C701B6010E94984755
:1040A0006D837E838F8398878091F0269091F1268F
:1040B0002816390611F00E946F132C96CDBFDEBF73
:1040C000DF91CF911F910F91FF90EF90DF90CF90F4
:1040D000BF90AF909F908F907F906F905F904F9028
:1040E0003F902F9008954F925F926F927F928F92A0
:1040F0009F92AF92BF92CF92DF92EF92FF920F9377
:104100001F93CF93DF93C4E7D6E24C805D806E802F
:104110007F804CEC56E2C301B2010E946D2E9B01E0
:10412000AC016093232770932427809325279093D5
:104130002627812C912C5401B394C12CD12C90E2D0
:10414000E92E93E4F92E0CEC16E2C301B2010E94B1
:104150003F2F6B017C010BE217E2F8016083718352
:10416000828393836C897D898E899F890E94CD4843
:10417000A70196010E94C9306C8F7D8F8E8F9F8F13
:10418000F801C080D180E280F380688D798D8A8DBE
:104190009B8D0E94CD48A70196010E94C93068A35B
:1041A00079A38AA39BA3DF91CF911F910F91FF90D9
:1041B000EF90DF90CF90BF90AF909F908F907F90C7
:1041C0006F905F904F900895209198263091992696
:1041D00040919A2650919B266091A8267091A9261D
:1041E0008091AA269091AB260E945B4A20E030E0A5
:1041F00040E752E40E94014860930B2770930C271C
:1042000080930D2790930E278091E127833081F4CE
:1042100080918A2790918B27A0918C27B0918D2730
:104220008093852790938627A0938727B09388272C
:1042300008958091B4269091B526A091B626B091AC
:10424000B7268093E7259093E825A093E925B093BE
:10425000EA2564E087EE95E20C94AB09CF93DF93F7
:1042600000D01F92CDB7DEB72091B8263091B92685
:104270004091BA265091BB2660E070E080E291E464
:104280000E94984769837A838B839C8364E0CE0184
:1042900001960E94AB092496CDBFDEBFDF91CF917E
:1042A0000895CF92DF92EF92FF92CF93DF9300D0E9
:1042B0001F92CDB7DEB7FC01C180D280E380F480CD
:1042C0002DEC3CEC4CEC5DE3C701B6010E94FD47D0
:1042D00087FD05C0C982DA82EB82FC8208C08DECC2
:1042E0009CECACECBDE389839A83AB83BC832091C7
:1042F000B8263091B9264091BA265091BB2660E08D
:1043000070E080E291E40E9498472091B4263091B9
:10431000B5264091B6265091B7260E9498476B016A
:104320007C012AE939E949E750E40E94A2491816BC
:1043300044F48AE9C82E89E9D82E89E7E82E80E47A
:10434000F82E29813A814B815C81C701B6010E9418
:10435000FD4787FF04C0C982DA82EB82FC8220E03D
:1043600030E0A901C701B6010E94FD4787FF08C0E0
:104370008DEC9CECACECBDE389839A83AB83BC836E
:1043800089819A81AB81BC818093B4269093B526B4
:10439000A093B626B093B72664E0CE0101960E94A2
:1043A000AB092496CDBFDEBFDF91CF91FF90EF9098
:1043B000DF90CF900895CF92DF92EF92FF92CF934C
:1043C000DF9300D01F92CDB7DEB720E030E44CE1A0
:1043D00056E4FC0161817281838194810E945B4A71
:1043E0000E940A4B0E949A480E94CD4820E030E487
:1043F0004CE156E40E94014869837A838B839C8355
:10440000C090C426D090C526E090C626F090C7265E
:10441000A70196010E94A249181624F4C982DA82E3
:10442000EB82FC82C090C026D090C126E090C226CC
:10443000F090C32629813A814B815C81C701B60186
:104440000E94A249181624F4C982DA82EB82FC8207
:1044500069817A818B819C8162DD8091F0269091C7
:10446000F1268093F2269093F3263DDE64E0CE01A0
:1044700001960E94AB092496CDBFDEBFDF91CF919C
:10448000FF90EF90DF90CF90089564E086E997E287
:104490000C94AB09CF93DF9300D01F92CDB7DEB75A
:1044A00080918A2790918B27A0918C27B0918D279E
:1044B00089839A83AB83BC8364E0CE0101960E941A
:1044C000AB092496CDBFDEBFDF91CF910895CF9287
:1044D000DF92EF92FF92CF93DF9300D01F92CDB780
:1044E000DEB7FC01C180D280E380F48020E030E0C0
:1044F000A901C701B6010E94FD4787FD05C0C98219
:10450000DA82EB82FC8204C019821A821B821C822E
:1045100089819A81AB81BC8180939C2690939D2652
:10452000A0939E26B0939F2640E067E377E288E958
:1045300096E269D964E0CE0101960E94AB09249607
:10454000CDBFDEBFDF91CF91FF90EF90DF90CF9096
:104550000895CF92DF92EF92FF92CF93DF9300D036
:104560001F92CDB7DEB7FC01C180D280E380F4801A
:1045700020E030E0A901C701B6010E94FD4787FD98
:1045800005C0C982DA82EB82FC8204C019821A82D9
:104590001B821C8289819A81AB81BC818093A02679
:1045A0009093A126A093A226B093A32640E067E3B0
:1045B00077E288E996E227D964E0CE0101960E946D
:1045C000AB092496CDBFDEBFDF91CF91FF90EF9076
:1045D000DF90CF900895CF92DF92EF92FF92CF932A
:1045E000DF9300D01F92CDB7DEB7FC01C180D2802F
:1045F000E380F48020E030E0A901C701B6010E9409
:10460000FD4787FD05C0C982DA82EB82FC8204C0C7
:1046100019821A821B821C8289819A81AB81BC819A
:104620008093A4269093A526A093A626B093A726B0
:1046300040E067E377E288E996E2E5D864E0CE01FE
:1046400001960E94AB092496CDBFDEBFDF91CF91CA
:10465000FF90EF90DF90CF900895CF92DF92EF928E
:10466000FF92CF93DF9300D01F92CDB7DEB7FC014E
:10467000C180D280E380F48020E030E0A901C7014E
:10468000B6010E94FD4787FD05C0C982DA82EB8230
:10469000FC8204C019821A821B821C8269817A8181
:1046A0008B819C816093A8267093A9268093AA266B
:1046B0009093AB26209198263091992640919A2686
:1046C00050919B260E945B4A20E030E040E752E494
:1046D0000E94014860930B2770930C2780930D274D
:1046E00090930E2771DD64E0CE0101960E94AB0924
:1046F0002496CDBFDEBFDF91CF91FF90EF90DF908A
:10470000CF900895CF93DF9300D01F92CDB7DEB73F
:1047100080919C2690919D26A0919E26B0919F26E7
:1047200089839A83AB83BC8364E0CE0101960E94A7
:10473000AB092496CDBFDEBFDF91CF910895CF9313
:10474000DF9300D01F92CDB7DEB78091A026909165
:10475000A126A091A226B091A32689839A83AB8338
:10476000BC8364E0CE0101960E94AB092496CDBFC4
:10477000DEBFDF91CF910895CF93DF9300D01F92DA
:10478000CDB7DEB78091A4269091A526A091A6264C
:10479000B091A72689839A83AB83BC8364E0CE0162
:1047A00001960E94AB092496CDBFDEBFDF91CF9169
:1047B0000895CF93DF9300D01F92CDB7DEB78091DD
:1047C000A8269091A926A091AA26B091AB2689830C
:1047D0009A83AB83BC8364E0CE0101960E94AB094F
:1047E0002496CDBFDEBFDF91CF910895CF92DF92A7
:1047F000EF92FF92CF93DF9300D01F92CDB7DEB739
:10480000FC01C180D280E380F480C982DA82EB822D
:10481000FC8220E030E0A901C701B6010E94A24954
:1048200018166CF4C092D826D092D926E092DA26D7
:10483000F092DB2602DB64E0CE01019603C064E067
:1048400088ED96E20E94AB092496CDBFDEBFDF91D2
:10485000CF91FF90EF90DF90CF900895CF92DF92AD
:10486000EF92FF92CF93DF9300D01F92CDB7DEB7C8
:10487000FC01C180D280E380F48023E333E948E87F
:1048800053ECC701B6010E94FD4787FD05C0C982F0
:10489000DA82EB82FC8208C083E393E9A8E8B3ECF8
:1048A00089839A83AB83BC8320E030E04AE754E4F9
:1048B00069817A818B819C810E94A249181644F4F7
:1048C00080E090E0AAE7B4E489839A83AB83BC8359
:1048D00089819A81AB81BC818093E0269093E12607
:1048E000A093E226B093E326A8DA64E0CE01019615
:1048F0000E94AB092496CDBFDEBFDF91CF91FF9020
:10490000EF90DF90CF900895CF92DF92EF92FF92D9
:10491000CF93DF9300D01F92CDB7DEB7FC01C180EB
:10492000D280E380F48020E030E040E85FE3C7011C
:10493000B6010E94FD4787FD05C0C982DA82EB827D
:10494000FC8208C080E090E0A0E8BFE389839A83FE
:10495000AB83BC8389819A81AB81BC818093DC2647
:104960009093DD26A093DE26B093DF2666DA64E01E
:10497000CE0101960E94AB092496CDBFDEBFDF9128
:10498000CF91FF90EF90DF90CF900895CF93DF937A
:1049900000D01F92CDB7DEB7FC0181819281A38147
:1049A000B48189839A83AB83BC838093CC26909314
:1049B000CD26A093CE26B093CF2664E0CE010196FB
:1049C0000E94AB092496CDBFDEBFDF91CF91089541
:1049D000CF92DF92EF92FF92CF93DF9300D01F929E
:1049E000CDB7DEB7FC01C180D280E380F480C982FC
:1049F000DA82EB82FC8220E030E0A901C701B60137
:104A00000E94A2491816E4F4C092D026D092D12672
:104A1000E092D226F092D326A701960160E070E0E2
:104A200080E89FE30E9401486093D8267093D926BE
:104A30008093DA269093DB2664E0CE01019603C0D2
:104A400064E080ED96E20E94AB092496CDBFDEBF04
:104A5000DF91CF91FF90EF90DF90CF900895CF93AB
:104A6000DF9300D01F92CDB7DEB7FC018181928128
:104A7000A381B48189839A83AB83BC838093D4263A
:104A80009093D526A093D626B093D72664E0CE0186
:104A900001960E94AB092496CDBFDEBFDF91CF9176
:104AA0000895CF93DF9300D01F92CDB7DEB78091EA
:104AB000D8269091D926A091DA26B091DB26898359
:104AC0009A83AB83BC8364E0CE0101960E94AB095C
:104AD0002496CDBFDEBFDF91CF910895CF93DF93B2
:104AE00000D01F92CDB7DEB78091E0269091E126ED
:104AF000A091E226B091E32689839A83AB83BC839D
:104B000064E0CE0101960E94AB092496CDBFDEBFC2
:104B1000DF91CF910895CF93DF9300D01F92CDB74F
:104B2000DEB78091DC269091DD26A091DE26B09143
:104B3000DF2689839A83AB83BC8364E0CE01019630
:104B40000E94AB092496CDBFDEBFDF91CF910895BF
:104B5000CF93DF9300D01F92CDB7DEB78091CC26E4
:104B60009091CD26A091CE26B091CF2689839A83AD
:104B7000AB83BC8364E0CE0101960E94AB0924960E
:104B8000CDBFDEBFDF91CF910895CF93DF9300D0EB
:104B90001F92CDB7DEB78091D0269091D126A091FB
:104BA000D226B091D32689839A83AB83BC8364E0F9
:104BB000CE0101960E94AB092496CDBFDEBFDF91E6
:104BC000CF910895CF93DF9300D01F92CDB7DEB77A
:104BD0008091D4269091D526A091D626B091D72643
:104BE00089839A83AB83BC8364E0CE0101960E94E3
:104BF000AB092496CDBFDEBFDF91CF910895CF934F
:104C0000DF9300D01F92CDB7DEB78091B026909190
:104C1000B126A091B226B091B32689839A83AB8343
:104C2000BC8364E0CE0101960E94AB092496CDBFFF
:104C3000DEBFDF91CF91089564E084EB96E20C949F
:104C4000AB09CF92DF92EF92FF92FC01C180D2803C
:104C5000E380F48026E636E646E65FE3C701B60168
:104C60000E94A24918166CF020E030E0A901C701AB
:104C7000B6010E94FD4787FF0AC0C12CD12C7601E6
:104C800006C086E6C82EDC2CEC2C8FE3F82EC092F2
:104C9000B026D092B126E092B226F092B32680914F
:104CA000F826811109C01092AC261092AD26109200
:104CB000AE261092AF260CC0F7FAF094F7F8F094F5
:104CC000C092AC26D092AD26E092AE26F092AF26EE
:104CD00064E080EB96E2FF90EF90DF90CF900C9431
:104CE000AB09CF92DF92EF92FF92CF93DF9300D088
:104CF0001F92CDB7DEB7C0909E27D0909F27E0903F
:104D0000A027F090A127C701B6019F772FE632E1D7
:104D100043E05AE30E94FD4787FD05C0C982DA825D
:104D2000EB82FC8204C019821A821B821C8264E01E
:104D3000CE0101960E94AB092496CDBFDEBFDF9164
:104D4000CF91FF90EF90DF90CF900895CF92DF92B8
:104D5000EF92FF920F931F93CF93DF9300D01F9298
:104D6000CDB7DEB7FC016181728183819481698353
:104D70007A838B839C8324E7C22E26E2D22EF6010F
:104D8000E4ACF5AC06AD17ADA801970150580E94F0
:104D9000931969837A838B839C83F601608B718B73
:104DA000828B938B64E0CE0101960E94AB0924961E
:104DB000CDBFDEBFDF91CF911F910F91FF90EF909C
:104DC000DF90CF90089564E084E896E20C94AB09FC
:104DD00064E08AEA97E20C94AB0964E08EEA97E219
:104DE0000C94AB09FC01618172816A30710510F489
:104DF0006AE070E06093D9277093DA2780E090E052
:104E00000E94CB4820E030E04AE754E40E94014889
:104E1000609398267093992680939A2690939B2668
:104E200062E089ED97E20C94AB0962E089ED97E2CC
:104E30000C94AB09FC018181882329F081E08093E7
:104E4000F92684E003C01092F92685E00C943D0A0F
:104E50008091F926882311F084E001C085E00C944C
:104E60003D0ACF93FC01C181CC2321F081E08093E6
:104E7000FA2602C01092FA2640E067E377E288E95A
:104E800096E20E94031CCC2311F084E001C085E06F
:104E9000CF910C943D0ACF93FC01C181CC2321F02A
:104EA00081E08093FB2602C01092FB2640E067E37E
:104EB00077E288E996E20E94031CCC2311F084E09B
:104EC00001C085E0CF910C943D0ACF93FC01C181D4
:104ED000CC2321F081E08093FC2602C01092FC26B6
:104EE00040E067E377E288E996E20E94031CCC2366
:104EF00011F084E001C085E0CF910C943D0AFC01E3
:104F00008181882331F081E08093FD265DD984E0A2
:104F10000BC01092FD2610920B2710920C271092B6
:104F20000D2710920E2785E00C943D0A8091FA26F9
:104F3000882311F084E001C085E00C943D0A809143
:104F4000FB26882311F084E001C085E00C943D0A23
:104F50008091FC26882311F084E001C085E00C9448
:104F60003D0A8091FD26882311F084E001C085E090
:104F70000C943D0ACF93DF9300D01F92CDB7DEB7DC
:104F800020E030E04AE754E460918E2770918F274B
:104F900080919027909191270E945B4A69837A8340
:104FA0008B839C8364E0CE0101960E94AB0924961A
:104FB000CDBFDEBFDF91CF910895CF93DF931F92D6
:104FC0001F92CDB7DEB7E7E3F7E22FB7F89483E49B
:104FD00097E280839183828393838483958384E79C
:104FE00097E28683978382E390E080879187128699
:104FF00013862FBF20E030E04AE754E46091982602
:105000007091992680919A2690919B260E945B4AE6
:105010000E949F4869837A8381E08093E3271092FE
:10502000DF258FB7F89420914026309141262093B8
:105030005D2130935E218FBF62E0CE0101960E9418
:10504000AB090F900F90DF91CF9108951092E32755
:1050500085E00C943D0A61E00E94AB0910920820A3
:10506000109209200895CF939FB7F894809141271B
:105070009FBF8093DF2590E067E377E28091DF2593
:10508000981718F5492F50E0FB01CFB7F894A2818B
:10509000B3818D91A283B383268137812A173B0781
:1050A00020F42481358122833383228533852115A1
:1050B000310521F02150310922873387CFBFFA0112
:1050C000E455FA4D80839F5FD9CF97E0ECEAF5E293
:1050D000A0EEB5E201900D929A95E1F7883020F0AC
:1050E00087508093DE2502C01092DE2568E08FEDA8
:1050F00095E2CF910C94AB090F931F93CF93DF935D
:10510000CDB7DEB72897CDBFDEBF1091DE25012FCA
:10511000193008F008E0402F50E06091DF2570E082
:10512000611B710964557A4DCE0101960E94934F1F
:10513000101B1093DE2568E0CE0101960E94AB099A
:105140002896CDBFDEBFDF91CF911F910F910895BB
:105150000895FC0181819281A381B4818093E62727
:105160009093E727A093E827B093E92764E086EEC1
:1051700097E20C94AB09FC0181818093EA2710929D
:10518000EB2761E08AEE97E20C94AB096CEC76E2D7
:105190008091F0269091F126A1D7609378267093A4
:1051A000792680937A2690937B2664E088E796E2BE
:1051B0000C94AB09FC0181819091F8268917E1F0EC
:1051C000811109C01092AC261092AD261092AE2625
:1051D0001092AF2611C04091B0265091B126609137
:1051E000B2267091B32670584093AC265093AD26EA
:1051F0006093AE267093AF268093F826882311F033
:1052000084E001C085E00C943D0A8091F826882353
:1052100011F084E001C085E00C943D0ACF92DF924A
:10522000EF92FF920F931F93CF93DF93FC010181C5
:105230001281D381C48120E030E040E85FE36091D7
:10524000C4267091C5268091C6269091C7260E94DB
:1052500098476B017C019B01AC01B8018D2F9C2FFD
:105260000E94A24918161CF48601DE2DCF2D4CECAD
:1052700056E2B8018D2F9C2FCCD56CEC76E22ED760
:105280006093C0267093C1268093C2269093C32654
:10529000C0907826D0907926E0907A26F0907B26F0
:1052A000A70196010E94A249181644F4C092C02694
:1052B000D092C126E092C226F092C32664E080EC30
:1052C00096E2DF91CF911F910F91FF90EF90DF90C9
:1052D000CF900C94AB09CF93DF9300D01F92CDB742
:1052E000DEB78091C0269091C126A091C226B091D0
:1052F000C32689839A83AB83BC8364E0CE01019685
:105300000E94AB092496CDBFDEBFDF91CF910895F7
:10531000CF92DF92EF92FF920F931F93CF93DF9381
:10532000FC0101811281D381C48120E030E040E89A
:105330005FE36091C0267091C1268091C226909152
:10534000C3260E9499476B017C019B01AC01B80107
:105350008D2F9C2F0E94FD4787FF03C08601DE2D05
:10536000CF2D4CEC56E2B8018D2F9C2F52D56CEC12
:1053700076E2B4D66093C4267093C5268093C62681
:105380009093C726C0907826D0907926E0907A2610
:10539000F0907B26A70196010E94FD4787FF08C079
:1053A000C092C426D092C526E092C626F092C726A7
:1053B00064E084EC96E2DF91CF911F910F91FF9012
:1053C000EF90DF90CF900C94AB09CF93DF9300D098
:1053D0001F92CDB7DEB78091C4269091C526A091CB
:1053E000C626B091C72689839A83AB83BC8364E0C9
:1053F000CE0101960E94AB092496CDBFDEBFDF919E
:10540000CF910895CF92DF92EF92FF92FC01C1807D
:10541000D280E380F4802DEC3CEC4CEC5DE3C701E2
:10542000B6010E94FD4787FF0DC08DEC9CECACECF3
:10543000BDE38093C8269093C926A093CA26B09353
:10544000CB2608C0C092C826D092C926E092CA26B0
:10545000F092CB2664E088EC96E2FF90EF90DF902C
:10546000CF900C94AB09CF93DF9300D01F92CDB7B0
:10547000DEB78091C8269091C926A091CA26B09126
:10548000CB2689839A83AB83BC8364E0CE010196EB
:105490000E94AB092496CDBFDEBFDF91CF91089566
:1054A000CF93DF931F92CDB7DEB7FC01808181508F
:1054B000813009F080E089838981F4E08F9FC00109
:1054C000112464E081519A4D0E94AB090F90DF9145
:1054D000CF910895FC0180818150813009F080E0F6
:1054E000F4E08F9FC001112464E085519A4D0C9423
:1054F000AB09CF92DF92EF92FF92CF93DF9300D070
:105500001F92CDB7DEB7FC01C180D280E380F4806A
:1055100020E030E0A901C701B6010E94FD4787FDE8
:1055200005C0C982DA82EB82FC8204C019821A8229
:105530001B821C8289819A81AB81BC818093BC26AD
:105540009093BD26A093BE26B093BF2664E0CE0103
:1055500001960E94AB092496CDBFDEBFDF91CF91AB
:10556000FF90EF90DF90CF90089564E08CEB96E28F
:105570000C94AB09FC0181818093E426882329F0F7
:1055800081E08093E42684E001C085E00C943D0A2C
:105590008091E426882311F084E001C085E00C941A
:1055A0003D0AEF92FF920F931F93FC01618172817C
:1055B00083819481E12CF12C08EC12E420E030E0AE
:1055C00048EC52EC0E9493196093E6267093E7260C
:1055D0008093E8269093E92664E086EE96E21F9198
:1055E0000F91FF90EF900C94AB0964E086EE96E289
:1055F0000C94AB09EF92FF920F931F93FC01618112
:10560000728183819481E090C92AF090CA2A009126
:10561000CB2A1091CC2A20E030E0A9010E949319F6
:105620006093EA267093EB268093EC269093ED2608
:1056300064E08AEE96E21F910F91FF90EF900C9438
:10564000AB0964E08AEE96E20C94AB09FC0181811F
:10565000882329F081E08093E52684E003C010923E
:10566000E52685E00C943D0A8091E526882311F01B
:1056700084E001C085E00C943D0ACF93C82F8230AE
:10568000D9F118F0833059F05AC080E090E00E94C0
:105690003014C093E12788E08093060650C041E0B3
:1056A00067E377E288E996E20E94031C8091E12794
:1056B000823069F460918A2770918B2780918C27C2
:1056C00090918D270E948F1F0E94732003C088EC49
:1056D0008093EF2780918A2790918B27A0918C2728
:1056E000B0918D278093752790937627A093772785
:1056F000B093782783E01BC00E9473208091E1273C
:10570000833089F48091802690918126A091822611
:10571000B09183268093842690938526A093862635
:10572000B093872603C088EC8093EF2782E08093B4
:10573000E12781E00E94A61588E080930506CF91BD
:105740000895E4E0F3E380E090E0A0E0B0E480833B
:105750009183A283B3838DEC9CECACECBDE384839A
:105760009583A683B7838EE1808708954F925F92D9
:105770006F927F928F929F92AF92BF92CF92DF9261
:10578000EF92FF9260919C2580910C33681708F08E
:1057900048C06F5F60939C250E9458156B017C0187
:1057A00023E333E343E75FE360919F257091A025F6
:1057B0008091A1259091A2250E945B4A4B015C013A
:1057C00020ED3CEC4CE45DE3C701B6010E945B4A6E
:1057D000A50194010E94994760939F257093A0258D
:1057E0008093A1259093A225A70196010E94984736
:1057F0009B01AC010E945B4A9B01AC016091982522
:105800007091992580919A2590919B250E949947A6
:10581000609398257093992580939A2590939B2562
:1058200076C070E080E090E00E94CB489B01AC0124
:10583000609198257091992580919A2590919B254A
:105840000E9401480E942E4B6B017C018090043322
:1058500090900533A0900633B090073340909F2579
:105860005090A0256090A1257090A225A3019201DF
:10587000C501B4010E94FD4787FF1CC02091083379
:105880003091093340910A3350910B33C701B6016F
:105890000E94FD4787FF16C081E08093AB25C09230
:1058A000A325D092A425E092A525F092A6251092DA
:1058B000972523C0A3019201C501B4010E94FD47B1
:1058C00087FF09C080919D2590919E250196809328
:1058D0009D2590939E258091972591E0980F909318
:1058E0009725823050F0C092A325D092A425E09253
:1058F000A525F092A6251092AB251092982510921E
:10590000992510929A2510929B2510929C25FF9024
:10591000EF90DF90CF90BF90AF909F908F907F904F
:105920006F905F904F900895CF92DF92EF92FF9229
:10593000CF93DF9300D01F92CDB7DEB7FC01C080BC
:10594000D180E280F38020E030E0A901C701B601F8
:105950000E94FD4787FD05C0C982DA82EB82FC8286
:1059600004C019821A821B821C8220E030E040E0D1
:1059700051E469817A818B819C810E94A249181629
:1059800044F480E090E0A0E0B1E489839A83AB83A3
:10599000BC8364E0CE0101960E94AB0989819A81A3
:1059A000AB81BC818093043390930533A09306337D
:1059B000B09307330E94883D2496CDBFDEBFDF91B0
:1059C000CF91FF90EF90DF90CF90089564E084E056
:1059D00093E30C94AB09CF92DF92EF92FF92CF93B7
:1059E000DF9300D01F92CDB7DEB7FC01C080D1801D
:1059F000E280F38020E030E0A901C701B6010E94F7
:105A0000FD4787FD05C0C982DA82EB82FC8204C0B3
:105A100019821A821B821C8264E0CE0101960E94C8
:105A2000AB0989819A81AB81BC81809308339093C3
:105A30000933A0930A33B0930B330E94883D249618
:105A4000CDBFDEBFDF91CF91FF90EF90DF90CF9081
:105A50000895CF93DF9300D01F92CDB7DEB780912A
:105A6000083390910933A0910A33B0910B338983A5
:105A70009A83AB83BC8364E0CE0101960E94AB099C
:105A80002496CDBFDEBFDF91CF910895CF93DF93F2
:105A9000FC01C081D0E0CB3FD10510F0CAEFD0E0CF
:105AA0008C2F0E943D0AC0930C33DF91CF910C9450
:105AB000883D80910C330C943D0A8091AB2588235E
:105AC00011F084E001C085E00C943D0A64E08FE9A8
:105AD00095E20C94AB0964E087EA95E20C94AB097B
